:020000040800F2
:1000000000000320F52300086D2200087522000877
:100010007D220008852200088D22000800000000D3
:100020000000000000000000000000009522000811
:10003000A322000800000000B1220008BF2200082F
:100040004D2400084D2400084D240008CB22000850
:100050004D2400084D2400084D2400084D240008BC
:100060004D2400084D2400084D240008D922000822
:100070004D2400084D2400084D2400084D2400089C
:100080004D2400084D240008ED2200084D240008EE
:100090004D2400084D2400084D2400084D2400087C
:1000A0004D2400084D2400084D2400084D2400086C
:1000B000012300084D2400084D2400084D240008A9
:1000C0004D2400084D2400084D2400084D2400084C
:1000D0004D2400084D2400084D2400084D2400083C
:1000E0004D2400084D2400084D2400084D2400082C
:1000F00015230008212300082D2300084D240008A3
:100100004D2400084D2400084D2400084D2400080B
:100110004D2400084D2400084D2400084D240008FB
:100120004D2400084D2400084D2400084D240008EB
:0C0130004D2400084D2400084D24000858
:10013C00034613F8012B002AFBD1181A013870471B
:10014C000348044B834202D0034B03B1184770475A
:10015C005400002054000020000000000548064B0D
:10016C001B1AD90F01EBA301491002D0034B03B1A9
:10017C001847704754000020540000200000000075
:10018C0010B5064C237843B9FFF7DAFF044B13B1D3
:10019C000448AFF300800123237010BDAC00002095
:1001AC000000000060B9000808B5054B1BB10549FB
:1001BC000548AFF30080BDE80840FFF7CFBF00BF94
:1001CC0000000000B000002060B9000880B483B0CB
:1001DC0000AF7860064BD3F8902005497B68134339
:1001EC00C1F8903000BF0C37BD465DF8047B7047FA
:1001FC000008005880B485B000AF78604FF0B04371
:10020C00DA6C4FF0B0417B681343CB644FF0B043D2
:10021C00DA6C7B681340FB60FB6800BF1437BD468B
:10022C005DF8047B704780B485B000AF78604FF008
:10023C00B043D3F84C214FF0B0417B681343C1F865
:10024C004C314FF0B043D3F84C217B681340FB602A
:10025C00FB6800BF1437BD465DF8047B704780B562
:10026C0000AF02F0C5F902F0C9F94FF48030FFF786
:10027C00ADFF00F021F800F0C1F800BF80BD000018
:10028C00B0B588B000AF0B4B3C1D1D460FCD0FC455
:10029C0095E8070003C422800234130C237009F084
:1002AC0015FA3B1D184608F0A6FC00BF2037BD46CA
:1002BC00B0BD00BF78B9000880B588B000AF3B1D59
:1002CC0000221A605A609A60DA601A610023BB83BC
:1002DC0000237B8300233B830023FB7736E0FB7FEB
:1002EC00434ADB0013449B79002B2CD0FB7F404A04
:1002FC0052F833303F4A93421BD03E4A934221D8A6
:10030C00B3F1904F03D03C4A934209D01AE0FB7FE3
:10031C00374ADB0013449A88BB8B1343BB8312E030
:10032C00FB7F334ADB0013449A887B8B13437B831C
:10033C0009E0FB7F2E4ADB0013449A883B8B134366
:10034C003B8300E000BFFB7F0133FB77FB7F252B5A
:10035C00C5D90023FB600123BB6003233B61BB8B2E
:10036C00002B14D0BB8B7B600120FFF743FF0120D7
:10037C00FFF759FF3B1D19464FF0904004F008F968
:10038C00BB8B002219464FF0904004F071FA7B8B26
:10039C00002B12D07B8B7B600220FFF72BFF0220FF
:1003AC00FFF741FF3B1D1946134804F0F1F87B8B16
:1003BC0000221946104804F05BFA3B8B002B13D03B
:1003CC003B8B7B600420FFF715FF0420FFF72BFF0E
:1003DC003B1D1946074804F0DBF83B8B00221946FD
:1003EC00044804F045FA00BF00BF2037BD4680BD6D
:1003FC0004BA0008000800480004004880B400AFAC
:10040C0000BFBD465DF8047B7047000080B483B02C
:10041C0000AF7860074BD3F8803023F00702054912
:10042C007B681343C1F8803000BF0C37BD465DF8C4
:10043C00047B70470004005880B483B000AF786030
:10044C00064BD3F8902005497B681343C1F89030D4
:10045C0000BF0C37BD465DF8047B704700080058A0
:10046C0080B483B000AF78604FF0B0430A4AC3F851
:10047C009C204FF0B043D3F89C3023F47C527B6823
:10048C001B024FF0B0411343C1F89C3000BF0C3736
:10049C00BD465DF8047B7047FECAFECA80B483B0CB
:1004AC0000AF78604FF0B0439B6823F400424FF0EC
:1004BC00B0417B6813438B6000BF0C37BD465DF8C1
:1004CC00047B704780B400AF4FF0B043D3F890304A
:1004DC004FF0B04243F48033C2F8903000BFBD46B9
:1004EC005DF8047B704780B400AF4FF0B043D3F895
:1004FC0090304FF0B04223F48033C2F8903000BFFC
:10050C00BD465DF8047B704780B400AF4FF0B0433C
:10051C00D3F8943003F08063B3F1806F01D10123E1
:10052C0000E000231846BD465DF8047B704780B49C
:10053C0000AF4FF0B043D3F8943003F08053B3F1D5
:10054C00805F01D1012300E000231846BD465DF811
:10055C00047B704780B485B000AF78604FF0B04337
:10056C001A6D4FF0B0417B6813430B654FF0B043ED
:10057C001A6D7B681340FB60FB6800BF1437BD46E7
:10058C005DF8047B7047000080B400AF044B1B681F
:10059C00C3F30B031846BD465DF8047B704700BFE0
:1005AC00002004E080B400AF044B1B681B0C9BB212
:1005BC001846BD465DF8047B704700BF002004E080
:1005CC0080B483B000AF786039607B685A683B6850
:1005DC001B041A437B685A6000BF0C37BD465DF89C
:1005EC00047B704780B483B000AF786039607B685F
:1005FC005A683B681A437B685A6000BF0C37BD468B
:10060C005DF8047B704780B483B000AF78603960CC
:10061C007B685A693B681B041A437B685A6100BFAC
:10062C000C37BD465DF8047B704780B483B000AFD7
:10063C00786039607B685A693B681A437B685A61F9
:10064C0000BF0C37BD465DF8047B704780B483B0A7
:10065C0000AF786039607B683A689A6000BF0C37ED
:10066C00BD465DF8047B704780B483B000AF786002
:10067C0039607B683A689A6100BF0C37BD465DF8FB
:10068C00047B704780B483B000AF78607B68FF2236
:10069C005A6200BF0C37BD465DF8047B704780B4CE
:1006AC0083B000AF78607B68CA225A627B685322A1
:1006BC005A6200BF0C37BD465DF8047B704780B4AE
:1006CC0083B000AF786039607B689B6823F00702C9
:1006DC003B681A437B689A6000BF0C37BD465DF8D7
:1006EC00047B704780B500AF044B4FF400421A6195
:1006FC0000F02AF800F06AF800BF80BD00400058F6
:10070C0080B500AF00F076F800F08EF806490020B6
:10071C0000F0B4FDFFF7A3FD012101200AF040FE1B
:10072C0000F090F800BF80BD6802002080B400AFDC
:10073C0000BFBD465DF8047B704780B500AF50200C
:10074C00FFF77AFE00BF80BD80B500AF00F004F863
:10075C0000F01AF800BF80BD80B500AFFFF7D4FEE3
:10076C000346002B0DD0FFF7E2FE0346002B08D109
:10077C0004F040F904F03EF9FFF7A4FEFFF7B3FED6
:10078C0000BF00BF80BD000080B500AF4FF48010EB
:10079C00FFF7E0FE3F210C48FFF758FF3F210A48C6
:1007AC00FFF762FF3F210848FFF70AFF3F21064889
:1007BC00FFF729FF3F210448FFF714FF3F210248B0
:1007CC00FFF733FF00BF80BD000C005880B582B02E
:1007DC0000AF002009F006F878607B68002B05D08C
:1007EC007B689B791846FFF73BFE00BF00BF0837BC
:1007FC00BD4680BD80B500AFFFF798FFFFF79DFFAA
:10080C0000F002F800BF80BD80B500AF0548FFF7CF
:10081C0046FF00210348FFF752FF0248FFF732FF63
:10082C0000BF80BD0028004080B500AF4FF40040F1
:10083C00FFF734FE0AF0A2FD0420FFF7E7FD00BF2E
:10084C0080BD000080B588B000AF08F089FD114A6A
:10085C00002120200AF006FF0F4B3B600F4B7B6002
:10086C003B4619460E4808F03DFC0E4BBB600E4B48
:10087C00FB600E4B3B6140F23C537B6107F108037C
:10088C00184608F0AFFE08F065FD00BF2037BD46E6
:10089C0080BD00BF2991000834070320BD08000863
:1008AC00D50800084C09032040080320F801032058
:1008BC0080B483B000AF0346FB7100BF0C37BD465C
:1008CC005DF8047B7047000080B588B000AF78609D
:1008DC007B685B680B33FB61FB691B889BB2A3F5E0
:1008EC001243072B1FD801A252F823F01909000854
:1008FC002B090008330900083309000833090008E4
:10090C0033090008330900083309000807F10C0308
:10091C00184608F09DF9786800F01BF804E0786838
:10092C0000F006F800E000BF00BF2037BD4680BDD8
:10093C0080B485B000AF78607B685B680B33FB607C
:10094C00FB680233BB6000BF1437BD465DF8047B07
:10095C00704780B58AB000AF786007F108030022B9
:10096C001A605A609A60DA6000237B6200233B6253
:10097C007B685B680B33FB61FB690233BB61BB6952
:10098C001B78002B1DD1FFF77BFC0F233B727F23C1
:10099C00BB72FFF707FE78627B6A9BB2BB82FFF7E4
:1009AC00F3FD38623B6A9BB2FB8207F108031846E1
:1009BC0008F038F909F020F8002101200AF0F0FCC9
:1009CC0007E0BB691B78012B03D17B6800221A70EE
:1009DC0000BF00BF2837BD4680BD80B500AF4FF0CB
:1009EC00FF300AF043FD00BF80BD80B500AF0AF0B8
:1009FC0007FD00BF80BD80B582B000AF7860396064
:100A0C004FF0FF300AF032FD00BF0837BD4680BD05
:100A1C0080B582B000AF7860002120200AF044FE3F
:100A2C0000BF0837BD4680BD80B582B000AF78608E
:100A3C0002200AF0A5FE00BF0837BD4680BD80B578
:100A4C0082B000AF786002200AF0BAFE00BF08370F
:100A5C00BD4680BD80B483B000AF7860064BD3F840
:100A6C00802005497B681343C1F8803000BF0C37E8
:100A7C00BD465DF8047B70470008005880B483B015
:100A8C0000AF7860054B1A6804497B6813430B6010
:100A9C0000BF0C37BD465DF8047B7047000800585A
:100AAC0080B483B000AF0D4B9B6A9BB27B600B4B49
:100ABC009B6A9BB23B6005E03B687B60074B9B6A83
:100ACC009BB23B607A683B689A42F5D13B6818460A
:100ADC000C37BD465DF8047B704700BF0028004012
:100AEC0080B485B000AF03460A46FB711346BB7158
:100AFC00BA791D4913465B001344DB000B441533D4
:100B0C001B78FB73FB7B062B09D0FA7B164913462B
:100B1C005B001344DB000B441433FA791A70FA7936
:100B2C00114913465B001344DB000B441533FA7B6D
:100B3C001A70FA790C4913465B001344DB000B4422
:100B4C001433BA791A70BA79074913465B00134407
:100B5C00DB000B441533FA791A7000BF1437BD460D
:100B6C005DF8047B704700BFC800002080B485B0DE
:100B7C0000AF03460A46FB711346BB71294B1B7829
:100B8C00DBB2BA799A4232D0BA79274913465B0064
:100B9C001344DB000B4414331B78FB73FA7B2249A0
:100BAC0013465B001344DB000B441533FA791A70BF
:100BBC00FA791D4913465B001344DB000B441533D3
:100BCC00BA791A70FA79184913465B001344DB00A2
:100BDC000B441433FA7B1A70BA79134913465B0031
:100BEC001344DB000B441433FA791A7014E0FA79CD
:100BFC000D4913465B001344DB000B441533BA79E3
:100C0C001A70BA79084913465B001344DB000B4495
:100C1C001433FA791A7000BF1437BD465DF8047BA3
:100C2C00704700BF58010020C800002080B584B078
:100C3C0000AF0346FB714E4B1B78DBB2062B18D171
:100C4C004B4B1B78DAB24B4B1A70494AFB79137039
:100C5C00FA79494913465B001344DB000B44153306
:100C6C0006221A70454B4FF0FF321A600023FB81AD
:100C7C0078E000F009F90346FB81FA793E49134606
:100C8C005B001344DB000B4408331968FB89FA79C9
:100C9C001944394813465B001344DB000344083302
:100CAC001960FA79344913465B001344DB000B449A
:100CBC0008331B68BB602E4B1B78DBB219462E4ADF
:100CCC000B465B000B44DB00134408331B68BA680B
:100CDC009A4237D3264B1B787B737A7B2649134673
:100CEC005B001344DB000B4415331B783B7313E0A0
:100CFC007A7B214913465B001344DB000B4415330C
:100D0C001B787B737A7B1C4913465B001344DB0016
:100D1C000B4415331B783B733B7B062B0BD03A7B78
:100D2C00154913465B001344DB000B4408331B6866
:100D3C00BA689A42DCD27A7BFB7911461846FFF7E7
:100D4C00CFFE0FE00A4B1B78DAB2FB79114618463E
:100D5C00FFF70CFF064B1B78DAB2064B1A70044AED
:100D6C00FB791370FB8918461037BD4680BD00BF58
:100D7C005801002059010020C80000205C0100200F
:100D8C0080B485B000AF03460A46FB711346BB71B5
:100D9C00394B1B78DBB2FA799A4211D1364B1B785E
:100DAC00DAB2364B1A70FA79354913465B001344A4
:100DBC00DB000B4415331B78DAB22F4B1A703EE074
:100DCC00FA792F4913465B001344DB000B441433B0
:100DDC001B78FB73FA792A4913465B001344DB003A
:100DEC000B4415331B78BB73F979FA7B24480B46FB
:100DFC005B000B44DB00034415331B78D8B220494D
:100E0C0013465B001344DB000B44153302461A7087
:100E1C00BB7B062B13D0F979BA7B19480B465B00C8
:100E2C000B44DB00034414331B78D8B2144913462B
:100E3C005B001344DB000B44143302461A70FA793E
:100E4C000F4913465B001344DB000B440C330122A7
:100E5C001A70094B1B78DBB2062B07D1BB79002B20
:100E6C0004D1084B4FF0FF321A6000BF00BF14379B
:100E7C00BD465DF8047B70475801002059010020E5
:100E8C00C80000205C01002080B582B000AF1A4B76
:100E9C001B68B3F1FF3F26D0FFF702FE7860164BBC
:100EAC001B687A689A4205D8134B1A687B68D31A68
:100EBC007B600AE0114B1B881A467B68D31A3B6097
:100ECC000D4B1B683A6813447B600D4B1B781A461C
:100EDC007B6802FB03F37B600A4B1B781A467B682A
:100EEC00D3407B6001E000237B607B689BB218469B
:100EFC000837BD4680BD00BF5C01002064010020A6
:100F0C00620100206101002080B582B000AF034671
:100F1C00FB80FB88002B08D1FFF7C2FD0346214A5A
:100F2C001360032003F0A3F839E0FB88012B03D8EE
:100F3C001D4B1B78012B02D0FB88013BFB8000BFB3
:100F4C001A4B1B68DB6803F00403002BF8D0174B1B
:100F5C001B68DB68DAB2154B1B6862F49062DA60CE
:100F6C00134B4FF40022DA60032003F08EF8114B80
:100F7C005B691B0C1B04FA880E4913434B61FFF78A
:100F8C008FFD0346074A1360084B1B689A68074B92
:100F9C001B6842F480629A60AFF3008000BF083790
:100FAC00BD4680BD5C01002061010020680200206C
:100FBC00000800580028004080B584B000AF454BB5
:100FCC009B6803F48063B3F5806F07D100BF424B7D
:100FDC001B68DB6803F00403002BF8D13E4B1B6845
:100FEC009A683D4B1B6822F480629A603B4B1B78DD
:100FFC00FB73FA7B3A4913465B001344DB000B444A
:10100C0008331B68BB60FFF73FFF0346FB80FB8880
:10101C00BA689A4205D20023BB81324B01221A7066
:10102C004DE0FB88304A128892B213441A46BB68D2
:10103C00934206D92C4B1B88BB812A4B00221A7079
:10104C003DE0BB689AB2FB88D31ABB81254B0122C9
:10105C001A7034E0FA7B224913465B001344DB0020
:10106C000B4408331A68FB889A420AD2FA7B1C4953
:10107C0013465B001344DB000B44083300221A6058
:10108C0013E0FA7B164913465B001344DB000B4458
:10109C0008331968FB88FA7BC91A114813465B00A0
:1010AC001344DB00034408331960FA7B0C491346E4
:1010BC005B001344DB000B4415331B78FB73FB7B89
:1010CC00062BC7D1BB891846FFF71EFF00BF103790
:1010DC00BD4680BD00280040680200205801002059
:1010EC00C8000020600100206601002080B58AB095
:1010FC0000AFEFF310837B617B697B6272B600BF3C
:10110C00594B1B68CA225A62574B1B6853225A62AE
:10111C00554B1B689A68544B1B6822F480629A608A
:10112C00524B1B7887F8233097F8232050491346ED
:10113C005B001344DB000B440C331B78DBB2022B3B
:10114C006ED197F823204A4913465B001344DB0009
:10115C000B441B68FB6197F82320454913465B0041
:10116C001344DB000B4410331B68BB61414B1B78F1
:10117C00DBB2002B4CD097F823203D4913465B0083
:10118C001344DB000B440D331B78DBB2012B24D151
:10119C0097F8233001211846FFF7F2FD7B6A3B617B
:1011AC003B6983F3108800BF97F82320304913461E
:1011BC005B001344DB000B4404331A6897F82330AC
:1011CC001146184600F032FA274B1B68CA225A62A5
:1011DC00254B1B6853225A6212E07B6AFB60FB684A
:1011EC0083F3108800BF97F82330184600F09AF963
:1011FC001D4B1B68CA225A621B4B1B6853225A6236
:10120C0097F82330FA691946B86900F095FA22E08C
:10121C00FFF7D2FE7B6ABB60BB6883F310881AE0D1
:10122C0000BF114B1B68DB6803F00403002BF8D0E4
:10123C000D4B1B68DB68DAB20B4B1B6862F49062D7
:10124C00DA600D4B4FF40022DA607B6A7B607B68BE
:10125C0083F3108800BF044B1B68FF225A6200BF47
:10126C002837BD4680BD00BF680200205801002011
:10127C00C8000020600100200008005880B588B02C
:10128C0000AF03463960FB715E4B1B68CA225A6281
:10129C005C4B1B6853225A625B4B9B685A4A43F067
:1012AC0020039360584B9B68DBB203F00703DBB25F
:1012BC00C3F10403DAB2554B1A70534B1B6903F498
:1012CC00FE034FF4FE023A613A6992FAA2F2FA6016
:1012DC00FA687A617A69002A01D1202203E07A69DE
:1012EC00B2FA82F2D2B2D340DBB20133DAB2484B5B
:1012FC001A70454B1B699BB2C3F30E039BB20133AF
:10130C009AB2444B1A80434B1B88013B404A1278DB
:10131C0002FB03F3A3F5A0733C4A1278D340BB61E4
:10132C00BB694FF6FE72934204D93B4B4FF6FF72EA
:10133C001A8003E0BB699AB2374B1A804FF4002035
:10134C00FFF79CFB4FF40020FFF784FBFB79002B8D
:10135C003DD1324B01221A70314B4FF0FF321A60E3
:10136C000023FB770CE0FA7F2E4913465B001344F5
:10137C00DB000B440C3300221A70FB7F0133FB772C
:10138C00FB7F052BEFD9284B06221A701D4B1B68CF
:10139C009A681C4B1B6822F480629A60194B1B687C
:1013AC00DB68DAB2174B1B6862F49062DA601F4B91
:1013BC004FF40022DA60032002F067FE114B1B6829
:1013CC009A68104B1B6842F480429A6009E00D4BFE
:1013DC001B68DB6803F48063002B02D0032002F04F
:1013EC0046FE084B1B68FF225A6200220321032091
:1013FC0002F0FBFD032002F012FE00BF2037BD46B9
:10140C0080BD00BF68020020002800406101002060
:10141C0062010020640100206601002060010020B0
:10142C005C010020C8000020580100200008005872
:10143C0080B48BB000AFF860B9603B601346FB71B1
:10144C00002387F82630EFF31083FB61FB693B62C6
:10145C0072B600BF04E097F82630013387F82630C7
:10146C0097F82630052B0CD897F826202C491346D4
:10147C005B001344DB000B440C331B78DBB2002BFA
:10148C00E9D197F82630062B38D097F82620244936
:10149C0013465B001344DB000B440C3301221A701F
:1014AC003B6ABB61BB6983F3108800BF97F82620A9
:1014BC001B4913465B001344DB000B441033FA68E2
:1014CC001A6097F82620164913465B001344DB007C
:1014DC000B440D33FA791A7097F8262010491346ED
:1014EC005B001344DB000B443A681A60BB6897F846
:1014FC0026201A70002387F8273008E03B6A7B61AE
:10150C007B6983F3108800BF012387F8273097F895
:10151C00273018462C37BD465DF8047B704700BF5A
:10152C00C800002080B586B000AF0346FB71EFF316
:10153C001083FB60FB687B6172B600BF032002F076
:10154C007CFD344B1B68CA225A62324B1B685322F7
:10155C005A62FA79304913465B001344DB000B44A2
:10156C000C331B78DBB2022B42D1FB7900211846DD
:10157C00FFF706FC294B1B78FB74FB7C062B2FD149
:10158C00274B9B6803F48063B3F5806F07D100BFD2
:10159C00204B1B68DB6803F00403002BF8D11D4BB8
:1015AC001B689A681B4B1B6822F480629A6000BF10
:1015BC00184B1B68DB6803F00403002BF8D0154BA9
:1015CC001B68DB68DAB2134B1B6862F49062DA605A
:1015DC00144B4FF40022DA60032002F056FD07E0B2
:1015EC00114B1B78DBB2FA7C9A4201D0FFF7E4FC7A
:1015FC00084B1B68FF225A62032002F010FD7B6926
:10160C00BB60BB6883F3108800BF00BF1837BD46B2
:10161C0080BD00BF68020020C800002058010020D7
:10162C0000280040000800585901002080B586B001
:10163C0000AF03463960FB71FA793B4913465B00F6
:10164C001344DB000B440C331B78DBB2022B03D1AD
:10165C00FB791846FFF766FFEFF31083FB60FB681E
:10166C007B6172B600BF032002F0E7FC2F4B1B68B6
:10167C00CA225A622D4B1B6853225A62FA792A49A4
:10168C0013465B001344DB000B440C3302221A702C
:10169C00FA79254913465B001344DB000B440833ED
:1016AC003A681A60FA79204913465B001344DB0050
:1016BC000B4404333A681A60FB791846FFF7B6FA04
:1016CC0003467B821A4B1B787B741A4B1B78DBB25C
:1016DC007A7C9A4202D0FFF76FFC13E0FA79124938
:1016EC0013465B001344DB000B44083319687B8AF8
:1016FC00FA79C91A0C4813465B001344DB00034407
:10170C0008331960094B1B68FF225A62032002F050
:10171C0086FC7B69BB60BB6883F3108800BF00BF8D
:10172C001837BD4680BD00BFC800002068020020ED
:10173C00580100205901002080B584B000AFF8603A
:10174C000B467A60FB727B68984700BF1037BD462A
:10175C0080BD80B483B000AF78604FF0B043D3F855
:10176C00903023F018024FF0B0417B681343C1F85E
:10177C00903000BF0C37BD465DF8047B704780B4D9
:10178C0085B000AF78604FF0B0439A6C4FF0B04129
:10179C007B6813438B644FF0B0439A6C7B681340A7
:1017AC00FB60FB6800BF1437BD465DF8047B7047D7
:1017BC0080B485B000AF78604FF0B043DA6C4FF076
:1017CC00B0417B681343CB644FF0B043DA6C7B6859
:1017DC001340FB60FB6800BF1437BD465DF8047B0B
:1017EC00704780B500AF00F05DFEFEF77BFF00F0A8
:1017FC0013F800F06DF800F021F900F0C7F900F0D3
:10180C00B3F900F085F800F02DF900F05FF9FEF760
:10181C0077FFFFF7E2F8FCE780B59AB000AF07F16D
:10182C0020034822002118460AF05AF83B1D0022DA
:10183C001A605A609A60DA601A615A619A6103F010
:10184C00D9F81020FFF785FF204B1B6823F4C063E9
:10185C001E4A43F4007313601C4B1B6803F4C063F3
:10186C003B603B6807233B624FF480337B62012370
:10187C00BB624FF48073FB6240233B630023FB6429
:10188C0007F12003184603F031FC0346002B01D06E
:10189C0000F0F0F96F237B600223BB600023FB6038
:1018AC0000233B6100237B610023BB610023FB61B0
:1018BC003B1D0121184603F08DFF0346002B01D080
:1018CC0000F0D8F900BF6837BD4680BD0004005851
:1018DC0080B594B000AF3B4650220021184609F069
:1018EC00FFFF4FF440533B604FF480437B64022373
:1018FC00BB641023FB643B46184604F07CFB034698
:10190C00002B01D000F0B6F900BF5037BD4680BDAA
:10191C0080B586B000AF3B4600221A605A609A60D0
:10192C00DA601A615A613F4B3F4A1A603D4B4FF4E3
:10193C0080325A603B4B00229A603A4B0022DA60AC
:10194C00384B01221A61374B04225A61354B002265
:10195C001A76344B00225A76324B0422DA61314B20
:10196C00002283F820202F4B4FF4D8629A622D4B23
:10197C004FF48062DA622B4B012283F83020294B22
:10198C0000225A63274B002283F83820254801F0A7
:10199C0063F80346002B01D000F06CF9234B3B603D
:1019AC0006237B600523BB607F23FB6004233B6124
:1019BC0000237B613B4619461A4801F0E7FB0346BE
:1019CC00002B01D000F056F9194B3B600C237B60C7
:1019DC003B461946134801F0D9FB0346002B01D0B6
:1019EC0000F048F9134B3B6012237B603B461946D1
:1019FC000C4801F0CBFB0346002B01D000F03AF968
:101A0C000D4B3B6018237B603B461946054801F0A3
:101A1C00BDFB0346002B01D000F02CF900BF18379A
:101A2C00BD4680BD68010020000004500200300457
:101A3C00040060080800900C1000C01080B500AFC6
:101A4C00064B074A1A60054802F04EFF0346002B6E
:101A5C0001D000F00FF900BF80BD00BF2C020020A8
:101A6C00000C005880B500AF164B174A1A60154B86
:101A7C0000225A60134B0F229A60124B47F6FF72EA
:101A8C00DA60104B00221A610E4B00229A610D4B4A
:101A9C000022DA610B4B00225A610A4804F032FD35
:101AAC000346002B01D000F0E5F800220021054888
:101ABC0004F028FE0346002B01D000F0DBF800BF39
:101ACC0080BD00BF680200200028004080B588B0AF
:101ADC0000AF07F1100300221A605A609A60DA60B6
:101AEC003B1D00221A605A609A601E4B4FF08042D8
:101AFC001A601C4B01225A601A4B00229A60194B37
:101B0C0041F63F72DA60174B00221A61154B002226
:101B1C009A61144804F0B2FE0346002B01D000F089
:101B2C00A9F84FF480533B6107F1100319460D4897
:101B3C0005F049F80346002B01D000F09BF8202358
:101B4C007B600023FB603B1D1946064805F042FAFA
:101B5C000346002B01D000F08DF800BF2037BD46A6
:101B6C0080BD00BF8C02002080B500AF0420FFF7C1
:101B7C0006FE0120FFF703FE002200210B2002F0DD
:101B8C0034FA0B2002F04BFA00BF80BD80B586B052
:101B9C0000AF3B1D00221A605A609A60DA601A612D
:101BAC000120FFF705FE0820FFF702FE0420FFF7D7
:101BBC00FFFD0220FFF7FCFD0022BE214FF09040FC
:101BCC0002F056FE002242F20801274802F050FEB5
:101BDC0000224FF4E071254802F04AFE00228021D9
:101BEC00234802F045FE002223211F4802F040FE4C
:101BFC00BE237B600123BB600023FB6000233B61A1
:101C0C003B1D19464FF0904002F0C2FC42F2080313
:101C1C007B603B1D1946144802F0BAFC23237B6001
:101C2C000123BB600023FB6002233B613B1D194673
:101C3C000D4802F0ADFC0123BB600023FB600023C8
:101C4C003B614FF4E0737B603B1D1946074802F083
:101C5C009FFC80237B603B1D1946054802F098FCD5
:101C6C0000BF1837BD4680BD00040048000800487E
:101C7C00000C004880B400AF72B600BF00BFFDE797
:101C8C0080B483B000AF7860064B1B6823F007026A
:101C9C0004497B6813430B6000BF0C37BD465DF8ED
:101CAC00047B70470004005880B400AF034B1F2224
:101CBC009A6100BFBD465DF8047B70470004005874
:101CCC0080B400AF074BD3F8883003F48063B3F5CE
:101CDC00806F01D1012300E000231846BD465DF85A
:101CEC00047B70470004005880B400AF074BD3F856
:101CFC00883003F40043B3F5004F01D1012300E019
:101D0C0000231846BD465DF8047B7047000400585C
:101D1C0080B400AF4FF0B0431B684FF0B04243F4B7
:101D2C008073136000BFBD465DF8047B704780B4C0
:101D3C0000AF4FF0B0431B6803F48063B3F5806FC2
:101D4C0001D1012300E000231846BD465DF8047B59
:101D5C00704780B483B000AF78604FF0B0439B689D
:101D6C0023F003024FF0B0417B6813438B6000BF3C
:101D7C000C37BD465DF8047B704780B400AF4FF064
:101D8C00B0439B6803F00C031846BD465DF8047B1A
:101D9C00704780B483B000AF78604FF0B0435B6A9B
:101DAC0023F003024FF0B0417B6813434B6200BF3A
:101DBC000C37BD465DF8047B7047000080B400AF63
:101DCC00054B1B69044A23F00403136100BFBD4695
:101DDC005DF8047B704700BF00ED00E080B400AFFD
:101DEC00054B1B69044A43F00403136100BFBD4655
:101DFC005DF8047B704700BF00ED00E080B483B059
:101E0C0000AF786039607B683A68203253F8223032
:101E1C00054A934201D0012300E0002318460C37F9
:101E2C00BD465DF8047B70470004008080B485B02B
:101E3C0000AFF860B9607A607B6843F48061FB683E
:101E4C00BA6843F8221000BF1437BD465DF8047B16
:101E5C00704780B500AF00F0ABFB00F035F8FFF732
:101E6C0023FF0320FFF70CFFFFF7B8FF30BF00BFC5
:101E7C0080BD80B500AF00F0ABFB00BF80BD80B56E
:101E8C0000AF00F095FB00F01FF80220FFF7F8FE02
:101E9C00FFF7A4FF30BF00BF80BD80B500AF00F0DE
:101EAC004FF800F095FB00BF80BD80B500AF00F08F
:101EBC007FFBFFF783FF30BF00BF80BD80B500AF55
:101ECC0000F086FB00BF80BD80B500AF00BF0321D2
:101EDC001948FFF793FF0346002BF8D1042116484D
:101EEC00FFF78CFF0346002B17D1FFF7FDFE0346CF
:101EFC00002B04D1FFF7E4FE0346002B15D0002283
:101F0C0004210D48FFF792FF00F034F80B4B1B68CF
:101F1C000A4A23F00703136007E000F02BF8074B85
:101F2C001B68064A23F007031360002203210248B2
:101F3C00FFF77CFF00BF80BD001400580040005824
:101F4C0080B500AF002204210948FFF76FFF00BFE6
:101F5C0003210748FFF752FF0346002BF8D1FFF788
:101F6C000CFF002203210248FFF760FF00BF80BD79
:101F7C000014005880B500AFFFF7CAFE00BFFFF792
:101F8C00D6FE0346002BFAD00120FFF7E2FE00201C
:101F9C00FFF7FFFE00BFFFF7F0FE0346042BFAD15C
:101FAC0000BF80BD80B400AF4FF0B043D3F8903089
:101FBC004FF0B04243F40043C2F8903000BFBD462E
:101FCC005DF8047B704780B485B000AF78604FF04B
:101FDC00B043DA6C4FF0B0417B681343CB644FF0E5
:101FEC00B043DA6C7B681340FB60FB6800BF1437AE
:101FFC00BD465DF8047B704780B485B000AF786057
:10200C004FF0B0431A6D4FF0B0417B6813430B6532
:10201C004FF0B0431A6D7B681340FB60FB6800BF48
:10202C001437BD465DF8047B704780B485B000AFB3
:10203C0078604FF0B0439A6D4FF0B0417B6813431A
:10204C008B654FF0B0439A6D7B681340FB60FB6867
:10205C0000BF1437BD465DF8047B704780B500AFF8
:10206C004FF40020FFF7C8FF002200212E2001F0C2
:10207C00BCFF2E2001F0D3FF00F0DAFA022000F0B2
:10208C00C3FA00BF80BD000080B59CB000AF786083
:10209C0007F15C0300221A605A609A60DA601A61D8
:1020AC0007F10C0350220021184609F019FC7B683B
:1020BC001B682F4A934256D14FF48063FB604FF05C
:1020CC004053BB6407F10C03184603F094FF03461E
:1020DC00002B01D0FFF7CEFD4FF40050FFF773FF3C
:1020EC000420FFF770FF0F23FB6503233B660023DF
:1020FC007B6607F15C0319461E4802F049FA1E4B39
:10210C001E4A1A601C4B05225A601B4B00229A6017
:10211C00194B0022DA60184B80221A61164B4FF4CF
:10212C0080725A61144B4FF480629A61124B2022D8
:10213C00DA61114B4FF440521A620F4801F0B4FFB0
:10214C000346002B01D0FFF795FD7B680A4ADA6441
:10215C00094A7B68936200220021122001F045FF9E
:10216C00122001F05CFF00BF7037BD4680BD00BF80
:10217C000000045000080048CC0100200800024078
:10218C0080B582B000AF78607B681B680D4A9342C3
:10219C0013D14FF48010FFF72FFF002200212C20C9
:1021AC0001F023FF2C2001F03AFF002200212D200A
:1021BC0001F01BFF2D2001F032FF00BF0837BD4698
:1021CC0080BD00BF000C005880B596B000AF7860A1
:1021DC0007F1080350220021184609F081FB7B68A7
:1021EC001B68124A93421DD14FF40063BB604FF43D
:1021FC008073BB6407F10803184603F0FCFE03462A
:10220C00002B01D0FFF736FDFFF7CCFE4FF48060BA
:10221C00FFF70BFF00220021032001F0E6FE032054
:10222C0001F0FDFE00BF5837BD4680BD00280040C0
:10223C0080B582B000AF78607B681B68B3F1804FCB
:10224C000AD10120FFF7F1FE002200211C2001F031
:10225C00CCFE1C2001F0E3FE00BF0837BD4680BD5C
:10226C0080B400AF00BFFDE780B400AF00BFFDE756
:10227C0080B400AF00BFFDE780B400AF00BFFDE746
:10228C0080B400AF00BFFDE780B400AF00BFBD4617
:10229C005DF8047B704780B400AF00BFBD465DF8AD
:1022AC00047B704780B400AF00BFBD465DF8047B73
:1022BC00704780B500AF00F04FF900BF80BD80B50E
:1022CC0000AFFEF713FF00BF80BD000080B500AF6C
:1022DC00024802F00CF800BF80BD00BFCC0100200A
:1022EC0080B500AF024800F087FD00BF80BD00BF85
:1022FC006801002080B500AF024804F05DFB00BF10
:10230C0080BD00BF8C02002080B500AF08F0F8FE45
:10231C0000BF80BD80B500AF08F028FF00BF80BDB6
:10232C0080B500AF02F0BCFA00BF80BD80B400AF36
:10233C00244BD3F88830234A43F47003C2F8883016
:10234C004FF0B0431B684FF0B04243F001031360F1
:10235C004FF0B0434FF4E0229A604FF0B0431A684C
:10236C004FF0B041184B13400B604FF0B043D3F813
:10237C0094304FF0B04223F00503C2F894304FF084
:10238C00B043D3F898304FF0B04223F00103C2F8B9
:10239C0098304FF0B0430D4ADA604FF0B0430B4A1F
:1023AC001A614FF0B0431B684FF0B04223F4802306
:1023BC0013604FF0B04300229A6100BFBD465DF838
:1023CC00047B704700ED00E0FBFEF6FA00100422DF
:1023DC00D458C4500433C4188C42F9D370470360EA
:1023EC0004308842FBD370470C488546FFF79EFFAC
:1023FC000B480C490C4A0023FFF7EDFF0B480C4926
:10240C000C4A0023FFF7E7FF0B480C490023FFF7AA
:10241C00E8FF09F06DFAFFF7E4F9FEE7000003208E
:10242C00080000205400002028BC0008E401032010
:10243C00670A0320C6BC0008AC0000205006002030
:10244C00FEE7000080B400AF054B5B68044A43F024
:10245C000103536000BFBD465DF8047B704700BFAD
:10246C00002004E080B400AF054B5B68044A43F0E5
:10247C000203536000BFBD465DF8047B704700BF8C
:10248C00002004E080B400AF054B1B68044A23F025
:10249C000103136000BFBD465DF8047B704700BFAD
:1024AC003000014080B582B000AF0023FB710C4BB3
:1024BC001B680B4A43F480731360032001F08AFD00
:1024CC000F2000F00FF80346002B02D00123FB7104
:1024DC0001E0FFF7C3FDFB7918460837BD4680BD08
:1024EC000040005880B584B000AF78600023FB73C7
:1024FC00174B1B78002B24D003F018FB0246144B0F
:10250C001B7819464FF47A73B3FBF1F3B2FBF3F378
:10251C00184601F0A0FD0346002B0FD17B680F2B52
:10252C0009D8002279684FF0FF3001F05EFD094AAE
:10253C007B68136007E00123FB7304E00123FB734A
:10254C0001E00123FB73FB7B18461037BD4680BDB1
:10255C00100000200C00002080B400AF064B1B784C
:10256C001A46064B1B681344044A136000BFBD4651
:10257C005DF8047B704700BF10000020D8020020DB
:10258C0080B400AF034B1B681846BD465DF8047B56
:10259C00704700BFD802002080B400AF034B1B680B
:1025AC001846BD465DF8047B704700BF0C00002048
:1025BC0080B400AF054B1B68044A23F00203136080
:1025CC0000BFBD465DF8047B704700BF10E000E023
:1025DC0080B400AF054B1B68044A43F00203136040
:1025EC0000BFBD465DF8047B704700BF10E000E003
:1025FC0080B500AFFFF726FF00BF80BD80B500AFF0
:10260C00FFF730FF00BF80BD80B483B000AF7860AF
:10261C00064B1B6823F0020204497B6813430B60D2
:10262C0000BF0C37BD465DF8047B7047300001409D
:10263C0080B500AFFFF726FF00BF80BD80B483B02C
:10264C0000AF786039607B689B6823F47C123B6830
:10265C001A437B689A6000BF0C37BD465DF8047B5B
:10266C00704780B483B000AF786039607B689B683A
:10267C0023F0E0723B681A437B689A6000BF0C370A
:10268C00BD465DF8047B704780B483B000AF7860C2
:10269C007B689B6803F0E07318460C37BD465DF809
:1026AC00047B704780B487B000AFF860B9607A6083
:1026BC003B60FB6860331A46BB689B0013447B612C
:1026CC007B691A68084B13407A6802F0F8413A6843
:1026DC000A43134343F000427B691A6000BF1C3766
:1026EC00BD465DF8047B704700F0FF0380B485B0F5
:1026FC0000AF786039607B6860331A463B689B009A
:10270C001344FB60FB681B6803F0F843184614374E
:10271C00BD465DF8047B704780B487B000AFF860AD
:10272C00B9607A60FB6860331A46BB689B0013443F
:10273C007B617B691B6823F000427B681A437B69D1
:10274C001A6000BF1C37BD465DF8047B704780B42F
:10275C0083B000AF78607B68DB6803F44063002BC8
:10276C0001D1012300E0002318460C37BD465DF86B
:10277C00047B704780B487B000AFF860B9607A60B2
:10278C00FB6830331A46BB681B0A9B0003F00C0332
:10279C0013447B617B691A68BB6803F01F031F211C
:1027AC0001FA03F3DB431A407B689B0E03F01F0115
:1027BC00BB6803F01F0301FA03F31A437B691A6029
:1027CC0000BF1C37BD465DF8047B704780B483B0F6
:1027DC0000AF78607B68DB6803F0030318460C37A6
:1027EC00BD465DF8047B704780B483B000AF786061
:1027FC007B68DB6C03F0C003002B01D1012300E0EC
:10280C00002318460C37BD465DF8047B704780B436
:10281C0087B000AFF860B9607A60FB6814331A4671
:10282C00BB685B0E9B0003F0040313447B617B6964
:10283C001A68BB681B0D03F01F03072101FA03F391
:10284C00DB431A40BB681B0D03F01F03796801FAC8
:10285C0003F31A437B691A6000BF1C37BD465DF851
:10286C00047B704780B485B000AFF860B9607A60C3
:10287C00FB68D3F8B020BB68C3F31203DB431A40E8
:10288C007B6803F018030849D940BB680B40C3F3BD
:10289C0012031A43FB68C3F8B02000BF1437BD46BF
:1028AC005DF8047B704700BFFFFF070080B483B066
:1028BC0000AF78607B689B6823F0204323F03F03D4
:1028CC007A68936000BF0C37BD465DF8047B704797
:1028DC0080B483B000AF78607B689B6803F00053D2
:1028EC00B3F1005F01D1012300E0002318460C373F
:1028FC00BD465DF8047B704780B483B000AF786050
:10290C007B689B6823F0104323F03F0343F0805215
:10291C007B689A6000BF0C37BD465DF8047B70473E
:10292C0080B483B000AF78607B689B6803F0805301
:10293C00B3F1805F01D1012300E0002318460C376E
:10294C00BD465DF8047B704780B483B000AF7860FF
:10295C007B689B6823F0004323F03F0343F00102A4
:10296C007B689A6000BF0C37BD465DF8047B7047EE
:10297C0080B483B000AF78607B689B6823F0004321
:10298C0023F03F0343F002027B689A6000BF0C37D0
:10299C00BD465DF8047B704780B483B000AF7860AF
:1029AC007B689B6803F00103012B01D1012300E03C
:1029BC00002318460C37BD465DF8047B704780B485
:1029CC0083B000AF78607B689B6803F00203022B36
:1029DC0001D1012300E0002318460C37BD465DF8F9
:1029EC00047B704780B483B000AF78607B689B68D1
:1029FC0023F0004323F03F0343F004027B689A600A
:102A0C0000BF0C37BD465DF8047B704780B483B0C3
:102A1C0000AF78607B689B6803F00403042B01D142
:102A2C00012300E0002318460C37BD465DF8047BFB
:102A3C00704780B483B000AF78607B689B6803F00C
:102A4C000803082B01D1012300E0002318460C37A2
:102A5C00BD465DF8047B704780B588B000AF7860E8
:102A6C000023FB770023BB610023BB607B68002B3A
:102A7C0001D101232EE17B681B69002B7B685B6D08
:102A8C00002B09D17868FFF7FFFA7B6800229A6562
:102A9C007B68002283F850207B681B681846FFF780
:102AAC0017FF0346002B04D07B681B681846FFF702
:102ABC00FDFE7B681B681846FFF732FF0346002BB0
:102ACC0015D17B681B681846FFF716FF834B1B68F4
:102ADC009B09834AA2FB03239B0901335B00BB6068
:102AEC0002E0BB68013BBB60BB68002BF9D17B6883
:102AFC001B681846FFF714FF0346002B0DD17B68AB
:102B0C005B6D43F010027B685A657B689B6D43F0EC
:102B1C0001027B689A650123FB777B681B6818466A
:102B2C00FFF774FF78617B685B6D03F01003002B7B
:102B3C0040F0C7807B69002B40F0C3807B685B6DE5
:102B4C0023F4817343F002027B685A657B681B682F
:102B5C001846FFF721FF0346002B0BD16148FFF706
:102B6C001BFF0346002B05D17B685B6819465E484A
:102B7C00FFF764FD7B685B7E5A037B685B6B1A43D3
:102B8C007B68DB681A437B689B681A437B6893F805
:102B9C0020301B041343BA691343BB617B6893F861
:102BAC002030012B06D17B685B6A013B5B04BA6960
:102BBC001343BB617B689B6A002B09D07B689B6AC3
:102BCC0003F470727B68DB6A1343BA691343BB610D
:102BDC007B681B68DA68454B13407A681268B969E0
:102BEC000B43D3607B681B681846FFF70FFF3861F7
:102BFC007B681B681846FFF71CFFF8603B69002BCD
:102C0C003DD1FB68002B3AD17B681B7E9A037B6815
:102C1C0093F830305B001343BB617B681B68DB6847
:102C2C0023F4804323F002037A681268B9690B43DA
:102C3C00D3607B6893F83830012B18D17B681B6804
:102C4C001B6923F4FF6323F004037A68D16B7A6861
:102C5C00126C11437A68526C11437A68926C0A4375
:102C6C001A437B681B6842F001021A6107E07B681B
:102C7C001B681A697B681B6822F001021A617B6869
:102C8C001B69012B0CD17B681B681B6B23F00F019C
:102C9C007B68DB695A1E7B681B680A431A6307E072
:102CAC007B681B681A6B7B681B6822F00F021A6327
:102CBC007B685B6D23F0030343F001027B685A656C
:102CCC0007E07B685B6D43F010027B685A6501235B
:102CDC00FB77FB7F18462037BD4680BD08000020DF
:102CEC00632D3E05000004500003045007C0F0FFA4
:102CFC0080B586B000AFF860B9607A60FB681B687D
:102D0C001846FFF783FE0346002B67D1FB6893F848
:102D1C005030012B01D1022363E0FB68012283F8C0
:102D2C005020F86800F0F8FD0346FB75FB7D002B86
:102D3C004FD1FB685B6D23F4706323F0010343F404
:102D4C008072FB685A65FB685B6D03F48053002B43
:102D5C0006D0FB689B6D23F00602FB689A6502E0C7
:102D6C00FB6800229A65FB68DB6C204ADA62FB6820
:102D7C00DB6C1F4A1A63FB68DB6C1E4A5A63FB68E8
:102D8C001B681C221A60FB68002283F85020FB6829
:102D9C001B685A68FB681B6842F010025A60FB689B
:102DAC001B68DA68FB681B6842F00102DA60FB689A
:102DBC00D86CFB681B6840331946BA687B6801F015
:102DCC001BFA0346FB75FB681B681846FFF70AFEE7
:102DDC0006E0FB68002283F8502001E00223FB751B
:102DEC00FB7D18461837BD4680BD00BFD73A00089A
:102DFC00AF3B0008CB3B000880B588B000AF7860D3
:102E0C000023FB617B681B681B68BB617B681B68CC
:102E1C005B687B61BB6903F00203002B17D07B69F5
:102E2C0003F00203002B12D07B685B6D03F01003E0
:102E3C00002B05D17B685B6D43F400627B685A659F
:102E4C00786800F08DFF7B681B6802221A60BB69F2
:102E5C0003F00403002B04D07B6903F00403002B64
:102E6C0009D1BB6903F00803002B5DD07B6903F02B
:102E7C000803002B58D07B685B6D03F01003002B0C
:102E8C0005D17B685B6D43F400727B685A657B6887
:102E9C001B681846FFF75BFC0346002B3DD07B6894
:102EAC001B68DB6803F40053B3F5005F35D07B6817
:102EBC001B681B6803F00803082B2ED17B681B686A
:102ECC001846FFF7A3FD0346002B1AD17B681B683D
:102EDC005A687B681B6822F00C025A607B685B6D39
:102EEC0023F480727B685A657B685B6D03F48053B6
:102EFC00002B12D17B685B6D43F001027B685A6535
:102F0C000BE07B685B6D43F010027B685A657B6855
:102F1C009B6D43F001027B689A65786807F03EFB75
:102F2C007B681B680C221A60BB6903F02003002B22
:102F3C0004D07B6903F02003002B09D1BB6903F09B
:102F4C004003002B74D07B6903F04003002B6FD03F
:102F5C007B685B6D03F01003002B05D17B685B6D08
:102F6C0043F400527B685A657B681B681846FFF770
:102F7C003BFC38617B681B681846FFF7E8FBF86080
:102F8C007B681B68DB68BB603B69002B49D0BB6866
:102F9C0003F00073002B07D0FB68002B41D0BB68FB
:102FAC0003F40053002B3CD17B681B681B6803F0B7
:102FBC004003402B35D17B681B68DB6803F400139E
:102FCC00002B2ED17B681B681846FFF732FD034699
:102FDC00002B1AD17B681B685A687B681B6822F02F
:102FEC0060025A607B685B6D23F480527B685A6583
:102FFC007B685B6D03F48073002B12D17B685B6D77
:10300C0043F001027B685A650BE07B685B6D43F013
:10301C0010027B685A657B689B6D43F001027B68EC
:10302C009A65786800F074FE7B681B6860221A60F1
:10303C00BB6903F08003002B11D07B6903F0800384
:10304C00002B0CD07B685B6D43F480327B685A6537
:10305C00786800F087F87B681B6880221A60BB696F
:10306C0003F48073002B12D07B6903F48073002B64
:10307C000DD07B685B6D43F400327B685A657868D1
:10308C0000F05AFE7B681B684FF480721A60BB69B3
:10309C0003F40073002B12D07B6903F40073002B34
:1030AC000DD07B685B6D43F480227B685A65786831
:1030BC0000F04CFE7B681B684FF400721A60BB6911
:1030CC0003F01003002B2BD07B6903F01003002BB3
:1030DC0026D07B685B6B002B02D10123FB6109E0DE
:1030EC007B681B681846FFF771FB0346002B01D069
:1030FC000123FB61FB69012B0ED17B685B6D43F4F3
:10310C0080627B685A657B689B6D43F002027B682A
:10311C009A65786800F030F87B681B6810221A609A
:10312C00BB6903F48063002B18D07B6903F48063C4
:10313C00002B13D07B685B6D43F480427B685A652F
:10314C007B689B6D43F008027B689A657B681B6803
:10315C004FF480621A60786800F0E4FD00BF2037FD
:10316C00BD4680BD80B483B000AF786000BF0C3723
:10317C00BD465DF8047B704780B483B000AF7860C7
:10318C0000BF0C37BD465DF8047B704780B5B6B008
:10319C0000AF78603960002387F8D7300023FB60DC
:1031AC007B6893F85030012B01D102239FE37B689D
:1031BC00012283F850207B681B681846FFF726FC19
:1031CC000346002B40F084837B6818683B68596881
:1031DC003B681B681A46FFF7CDFA7B681B681846DC
:1031EC00FFF714FCC7F8D0007B681B681846FFF784
:1031FC0020FCC7F8CC00D7F8D030002B40F0A681CB
:10320C00D7F8CC30002B40F0A1817B6818683B6864
:10321C0019683B689B681A46FFF7F9FA3B685A69CC
:10322C007B681B68DB68DB0803F003035B0002FAB6
:10323C0003F3C7F8C8303B681B69042B0AD07B68C2
:10324C0018683B6819693B681A68D7F8C830FFF7EB
:10325C0029FA7BE17B681B6800211846FFF746FAC8
:10326C000346C3F31203002B0AD17B681B680021B1
:10327C001846FFF73BFA03469B0E03F01F021EE0B5
:10328C007B681B6800211846FFF730FA0346C7F825
:10329C00BC30D7F8BC3093FAA3F3C7F8C030D7F8DA
:1032AC00C030C7F8B830D7F8B830002B01D1202384
:1032BC0004E0D7F8B830B3FA83F3DBB21A463B68B4
:1032CC001B68C3F31203002B05D13B681B689B0ED4
:1032DC0003F01F0318E03B681B68C7F8B030D7F841
:1032EC00B03093FAA3F3C7F8AC30D7F8AC30C7F8CA
:1032FC00B430D7F8B430002B01D1202304E0D7F838
:10330C00B430B3FA83F3DBB29A4206D17B681B6804
:10331C00002200211846FFF7FFF97B681B6801218A
:10332C001846FFF7E3F90346C3F31203002B0AD147
:10333C007B681B6801211846FFF7D8F903469B0EE2
:10334C0003F01F021EE07B681B6801211846FFF783
:10335C00CDF90346C7F8A430D7F8A43093FAA3F3F9
:10336C00C7F8A030D7F8A030C7F8A830D7F8A830E5
:10337C00002B01D1202304E0D7F8A830B3FA83F353
:10338C00DBB21A463B681B68C3F31203002B05D152
:10339C003B681B689B0E03F01F0318E03B681B681F
:1033AC00C7F89830D7F8983093FAA3F3C7F894304D
:1033BC00D7F89430C7F89C30D7F89C30002B01D14B
:1033CC00202304E0D7F89C30B3FA83F3DBB29A42A3
:1033DC0006D17B681B68002201211846FFF79CF977
:1033EC007B681B6802211846FFF780F90346C3F37C
:1033FC001203002B0AD17B681B6802211846FFF7C9
:10340C0075F903469B0E03F01F021EE07B681B68D8
:10341C0002211846FFF76AF90346C7F88C30D7F833
:10342C008C3093FAA3F3C7F88830D7F88830C7F8F4
:10343C009030D7F89030002B01D1202304E0D7F83E
:10344C009030B3FA83F3DBB21A463B681B68C3F3C4
:10345C001203002B05D13B681B689B0E03F01F0366
:10346C0016E03B681B68C7F88030D7F8803093FAB9
:10347C00A3F3FB67FB6FC7F88430D7F88430002BBD
:10348C0001D1202304E0D7F88430B3FA83F3DBB204
:10349C009A4206D17B681B68002202211846FFF76E
:1034AC003BF97B681B6803211846FFF71FF903469D
:1034BC00C3F31203002B0AD17B681B680321184647
:1034CC00FFF714F903469B0E03F01F0217E07B680D
:1034DC001B6803211846FFF709F903467B677B6FCE
:1034EC0093FAA3F33B673B6FBB67BB6F002B01D118
:1034FC00202303E0BB6FB3FA83F3DBB21A463B68BD
:10350C001B68C3F31203002B05D13B681B689B0E91
:10351C0003F01F0311E03B681B68BB66BB6E93FA9C
:10352C00A3F37B667B6EFB66FB6E002B01D1202325
:10353C0003E0FB6EB3FA83F3DBB29A4206D17B68ED
:10354C001B68002203211846FFF7E6F87B681B680E
:10355C001846FFF721FA0346002B40F0C2817B6826
:10356C0018683B6819683B68DB681A46FFF77AF9FC
:10357C003B68DB688E4A934240F030817B68186868
:10358C003B681B68C3F31203002B0BD13B681B6811
:10359C009B0E013303F01F03092B94BF012300235F
:1035AC00DBB219E03B681B68FB65FB6D93FAA3F378
:1035BC00BB65BB6D3B663B6E002B01D1202303E04A
:1035CC003B6EB3FA83F3DBB2013303F01F03092B19
:1035DC0094BF01230023DBB2002B79D03B681B681E
:1035EC00C3F31203002B07D13B681B689B0E0133FE
:1035FC009B0603F0F84215E03B681B683B653B6D8E
:10360C0093FAA3F3FB64FB6C7B657B6D002B01D100
:10361C00202303E07B6DB3FA83F3DBB201339B060B
:10362C0003F0F8423B681B68C3F31203002B09D16B
:10363C003B681B689B0E013303F01F03012101FA49
:10364C0003F317E03B681B687B647B6C93FAA3F372
:10365C003B643B6CBB64BB6C002B01D1202303E0AF
:10366C00BB6CB3FA83F3DBB2013303F01F0301210C
:10367C0001FA03F342EA03013B681B68C3F312032C
:10368C00002B0AD13B681B689B0E013303F01F0211
:10369C0013465B0013441B0518E03B681B68BB63B7
:1036AC00BB6B93FAA3F37B637B6BFB63FB6B002B12
:1036BC0001D1202303E0FB6BB3FA83F3DBB20133BC
:1036CC0003F01F0213465B0013441B050B4380E001
:1036DC003B681B68C3F31203002B07D13B681B68C4
:1036EC009B0E01339B0603F0F84215E03B681B6808
:1036FC00FB62FB6A93FAA3F3BB62BB6A3B633B6B53
:10370C00002B01D1202303E03B6BB3FA83F3DBB234
:10371C0001339B0603F0F8423B681B68C3F31203AA
:10372C00002B09D13B681B689B0E013303F01F0370
:10373C00012101FA03F317E03B681B683B623B6A0B
:10374C0093FAA3F3FB61FB697B627B6A002B01D1CB
:10375C00202303E07B6AB3FA83F3DBB2013303F07B
:10376C001F03012101FA03F342EA03013B681B68C2
:10377C00C3F31203002B0DD13B681B689B0E013366
:10378C0003F01F0213465B0013441E3B1B0543F062
:10379C0000731DE03B681B687B617B6993FAA3F3A4
:1037AC003B613B69BB61BB69002B03D1202305E066
:1037BC0000007F40BB69B3FA83F3DBB2013303F043
:1037CC001F0213465B0013441E3B1B0543F00073A2
:1037DC000B433A6892681946FFF719F83B681A6868
:1037EC00454B1340002B7CD04448FEF74DFFC7F8E7
:1037FC00C4004348FFF7D0F80346002B5ED13B686A
:10380C001B68404A934227D1D7F8C43003F4000315
:10381C00002B21D17B681B68394A934261D1D7F8C0
:10382C00C43043F4000319463448FEF71AFF364BF4
:10383C001B689B09354AA2FB03239B095A1C1346A0
:10384C005B0013449B00FB6002E0FB68013BFB60E8
:10385C00FB68002BF9D144E03B681B682C4A93426F
:10386C0013D1D7F8C43003F08073002B0DD17B68D3
:10387C001B68234A934234D1D7F8C43043F0807389
:10388C0019461E48FEF7EDFE2BE03B681B68214AEB
:10389C00934226D1D7F8C43003F48003002B20D1F7
:1038AC007B681B68164A93421BD1D7F8C43043F48B
:1038BC00800319461148FEF7D4FE12E07B685B6D5D
:1038CC0043F020027B685A65012387F8D73008E063
:1038DC007B685B6D43F020027B685A65012387F897
:1038EC00D7307B68002283F8502097F8D7301846E1
:1038FC00D837BD4680BD00BF0000088000030450CF
:10390C0000000450000052C708000020632D3E0543
:10391C00000084CB0100008080B584B000AF7860DB
:10392C000023BB607B681B681846FFF735F803461D
:10393C00002B5ED17B681B689A68304B1340002BC0
:10394C000DD07B685B6D43F010027B685A657B6819
:10395C009B6D43F001027B689A6501234AE07B680A
:10396C001B681846FEF7F0FF2548FEF78DFE034650
:10397C0003F40003002B0FD0224B1B689B09224A37
:10398C00A2FB03239B090133BB6002E0BB68013B34
:10399C00BB60BB68002BF9D1FEF7F2FDF86021E0AB
:1039AC007B681B681846FEF7F7FF0346002B04D113
:1039BC007B681B681846FEF7C7FFFEF7E1FD024661
:1039CC00FB68D31A022B0DD97B685B6D43F0100298
:1039DC007B685A657B689B6D43F001027B689A6536
:1039EC00012307E07B681B681B6803F00103012BB4
:1039FC00D6D1002318461037BD4680BD3F0000804D
:103A0C000003045008000020632D3E0580B584B0EF
:103A1C0000AF78607B681B681846FEF7D0FFF86033
:103A2C007B681B681846FEF7B7FF0346002B47D090
:103A3C00FB68002B44D17B681B689B6803F00D036B
:103A4C00012B0CD17B681B681846FEF791FF7B6835
:103A5C001B6803221A60FEF793FDB86029E07B68AF
:103A6C005B6D43F010027B685A657B689B6D43F07D
:103A7C0001027B689A65012323E0FEF781FD024673
:103A8C00BB68D31A022B14D97B681B689B6803F0A4
:103A9C000103002B0DD07B685B6D43F010027B683B
:103AAC005A657B689B6D43F001027B689A65012324
:103ABC0007E07B681B689B6803F00103002BDCD1DB
:103ACC00002318461037BD4680BD80B584B000AFCA
:103ADC0078607B689B6AFB60FB685B6D03F050034E
:103AEC00002B4BD1FB685B6D43F40072FB685A658D
:103AFC00FB681B681B6803F00803002B21D0FB68D4
:103B0C001B681846FEF723FE0346002B32D0FB68D9
:103B1C001B68DB6803F40053002B2BD1FB685B6D37
:103B2C0023F48072FB685A65FB685B6D03F4805369
:103B3C00002B1FD1FB685B6D43F00102FB685A65DB
:103B4C0018E0FB681B68DB6803F00203002B11D143
:103B5C00FB685B6D23F48072FB685A65FB685B6DD8
:103B6C0003F48053002B05D1FB685B6D43F001021D
:103B7C00FB685A65F86806F011FD0EE0FB685B6D9A
:103B8C0003F01003002B03D0F868FFF7F5FA04E0FC
:103B9C00FB68DB6C5B6B7868984700BF1037BD46E1
:103BAC0080BD80B584B000AF78607B689B6AFB6099
:103BBC00F86806F0C5FC00BF1037BD4680BD80B567
:103BCC0084B000AF78607B689B6AFB60FB685B6DC0
:103BDC0043F04002FB685A65FB689B6D43F004029E
:103BEC00FB689A65F868FFF7C7FA00BF1037BD4647
:103BFC0080BD80B483B000AF786039607B689B680F
:103C0C0023F0404323F03F033A6802F08042134311
:103C1C0043F000427B689A6000BF0C37BD465DF8EC
:103C2C00047B704780B483B000AF78607B689B687E
:103C3C0003F00043B3F1004F01D1012300E0002356
:103C4C0018460C37BD465DF8047B704780B584B0D0
:103C5C0000AF786039600023BB607B6893F850300C
:103C6C00012B01D102234DE07B68012283F8502007
:103C7C007868FFF7CBFE0346FB73FB7B002B36D13A
:103C8C007B685B6D23F4885323F0020343F002023C
:103C9C007B685A657B681B6839681846FFF7A9FF73
:103CAC0014E0BB680133BB60BB68184A93420DD962
:103CBC007B685B6D23F0120343F010027B685A653E
:103CCC007B68002283F8502001231BE07B681B6873
:103CDC001846FFF7A7FF0346002BE2D17B685B6D0C
:103CEC0023F0030343F001027B685A6505E07B680F
:103CFC005B6D43F010027B685A657B68002283F889
:103D0C005020FB7B18461037BD4680BDAA6A0200C6
:103D1C0080B483B000AF786000BF0C37BD465DF84F
:103D2C00047B704780B483B000AF786000BF0C3761
:103D3C00BD465DF8047B704780B483B000AF7860FB
:103D4C0000BF0C37BD465DF8047B704780B483B070
:103D5C0000AF786000BF0C37BD465DF8047B704740
:103D6C0080B483B000AF786000BF0C37BD465DF8FF
:103D7C00047B704780B485B000AF78607B6803F03B
:103D8C000703FB600C4BDB68BB60BA684FF6FF03A4
:103D9C001340BB60FB681A02BB68134343F0BF635C
:103DAC0043F40033BB60044ABB68D36000BF1437D4
:103DBC00BD465DF8047B704700ED00E080B400AFB9
:103DCC00044BDB681B0A03F007031846BD465DF87D
:103DDC00047B704700ED00E080B483B000AF034675
:103DEC00FB7197F90730002B0BDBFB7903F01F02FB
:103DFC00074997F907305B09012000FA02F241F8F4
:103E0C00232000BF0C37BD465DF8047B704700BF14
:103E1C0000E100E080B483B000AF0346FB7197F97A
:103E2C000730002B12DBFB7903F01F020A4997F9CC
:103E3C0007305B09012000FA02F2203341F82320FD
:103E4C00BFF34F8F00BFBFF36F8F00BF00BF0C37A6
:103E5C00BD465DF8047B704700E100E080B483B0A0
:103E6C0000AF0346FB7197F90730002B0CDBFB7995
:103E7C0003F01F02074997F907305B09012000FA8C
:103E8C0002F2403341F8232000BF0C37BD465DF8E9
:103E9C00047B704700E100E080B483B000AF0346C0
:103EAC00FB7197F90730002B0CDBFB7903F01F0239
:103EBC00074997F907305B09012000FA02F26033D9
:103ECC0041F8232000BF0C37BD465DF8047B7047DA
:103EDC0000E100E080B483B000AF03463960FB71B1
:103EEC0097F90730002B0ADB3B68DAB20C4997F9DB
:103EFC0007301201D2B20B4483F800230AE03B686E
:103F0C00DAB20849FB7903F00F03043B1201D2B279
:103F1C000B441A7600BF0C37BD465DF8047B704726
:103F2C0000E100E000ED00E080B489B000AFF86083
:103F3C00B9607A60FB6803F00703FB61FB69C3F1AE
:103F4C000703042B28BF0423BB61FB690433062B36
:103F5C0002D9FB69033B00E000237B614FF0FF3289
:103F6C00BB6902FA03F3DA43BB681A407B699A40D7
:103F7C004FF0FF317B6901FA03F3D9437B680B40A7
:103F8C00134318462437BD465DF8047B7047000088
:103F9C0080B582B000AF78607B68013BB3F1807F65
:103FAC0001D301230FE00A4A7B68013B53600F21C8
:103FBC004FF0FF30FFF78EFF054B00229A60044B49
:103FCC0007221A60002318460837BD4680BD00BF83
:103FDC0010E000E080B582B000AF78607868FFF741
:103FEC00C9FE00BF0837BD4680BD80B586B000AFA6
:103FFC000346B9607A60FB73FFF7E0FE78617A687C
:10400C00B9687869FFF790FF024697F90F301146AF
:10401C001846FFF75FFF00BF1837BD4680BD80B55F
:10402C0082B000AF0346FB7197F907301846FFF7D3
:10403C00D3FE00BF0837BD4680BD80B582B000AF4F
:10404C000346FB7197F907301846FFF7E3FE00BFF4
:10405C000837BD4680BD80B582B000AF7860786807
:10406C00FFF796FF034618460837BD4680BD80B55E
:10407C0082B000AF0346FB7197F907301846FFF783
:10408C00EDFE00BF0837BD4680BD80B582B000AFE5
:10409C000346FB7197F907301846FFF7FDFE00BF8A
:1040AC000837BD4680BD000080B584B000AF786095
:1040BC007B68002B01D101238EE07B681B681A46BC
:1040CC00474B9A420FD87B681B681A46454B1344E2
:1040DC00454AA2FB03231B099A007B685A647B6840
:1040EC00424A1A640EE07B681B681A46404B134424
:1040FC003D4AA2FB03231B099A007B685A647B6828
:10410C003C4A1A647B68022283F825207B681B6872
:10411C001B68FB60FB6823F4FF4323F07003FB6018
:10412C007B689A687B68DB681A437B681B691A4357
:10413C007B685B691A437B689B691A437B68DB6904
:10414C001A437B681B6A1343FA681343FB607B6852
:10415C001B68FA681A60786800F0B6F97B689B688F
:10416C00B3F5804F02D17B6800225A607B685A6895
:10417C007B689B6C02F03F021A607B68DB6C7A6890
:10418C00126D5A607B685B68002B10D07B685B6893
:10419C00042B0CD8786800F0D5F97B685B6D002295
:1041AC001A607B689B6D7A68D26D5A6008E07B68F8
:1041BC0000225A657B6800229A657B680022DA65CA
:1041CC007B680022DA637B68012283F825207B68F8
:1041DC00002283F82420002318461037BD4680BDEA
:1041EC0007040240F8FFFDBFCDCCCCCC0000024050
:1041FC00F8FBFDBF0004024080B586B000AFF8604C
:10420C00B9607A603B600023FB75FB6893F824303F
:10421C00012B01D1022366E0FB68012283F82420E4
:10422C00FB6893F82530DBB2012B55D1FB680222D9
:10423C0083F82520FB680022DA63FB681B681A6888
:10424C00FB681B6822F001021A603B687A68B96847
:10425C00F86800F0FBF8FB681B6B002B08D0FB68C0
:10426C001B681A68FB681B6842F00E021A600FE0AC
:10427C00FB681B681A68FB681B6822F004021A6052
:10428C00FB681B681A68FB681B6842F00A021A601C
:10429C00FB689B6C1B6803F48033002B07D0FB6816
:1042AC009B6C1A68FB689B6C42F480721A60FB680A
:1042BC005B6D002B07D0FB685B6D1A68FB685B6D50
:1042CC0042F480721A60FB681B681A68FB681B68F2
:1042DC0042F001021A6005E0FB68002283F82420FA
:1042EC000223FB75FB7D18461837BD4680BD80B593
:1042FC0084B000AF78607B681B6C1B68FB607B68CC
:10430C001B681B68BB607B685B6C03F01C0304229E
:10431C009A40FB681340002B26D0BB6803F00403C3
:10432C00002B21D07B681B681B6803F02003002B3B
:10433C0007D17B681B681A687B681B6822F0040233
:10434C001A607B685B6C03F01C027B681B6C04219D
:10435C0001FA02F25A607B681B6B002B71D07B68F0
:10436C001B6B786898476CE07B685B6C03F01C03F4
:10437C0002229A40FB681340002B2ED0BB6803F03E
:10438C000203002B29D07B681B681B6803F02003F9
:10439C00002B0BD17B681B681A687B681B6822F0AA
:1043AC000A021A607B68012283F825207B685B6C0B
:1043BC0003F01C027B681B6C022101FA02F25A60AA
:1043CC007B68002283F824207B68DB6A002B38D0C2
:1043DC007B68DB6A7868984733E07B685B6C03F03A
:1043EC001C0308229A40FB681340002B2AD0BB68A0
:1043FC0003F00803002B25D07B681B681A687B68C8
:10440C001B6822F00E021A607B685B6C03F01C02C6
:10441C007B681B6C012101FA02F25A607B68012255
:10442C00DA637B68012283F825207B68002283F8FD
:10443C0024207B685B6B002B04D07B685B6B7868FB
:10444C00984700BF00BF1037BD4680BD80B485B013
:10445C0000AFF860B9607A603B60FB68DB6CFA68AF
:10446C00126D5A60FB685B6D002B04D0FB689B6D72
:10447C00FA68D26D5A60FB685B6C03F01C02FB6837
:10448C001B6C012101FA02F25A60FB681B683A6846
:10449C005A60FB689B68102B08D1FB681B687A6814
:1044AC009A60FB681B68BA68DA6007E0FB681B68F7
:1044BC00BA689A60FB681B687A68DA6000BF1437C8
:1044CC00BD465DF8047B704780B485B000AF786062
:1044DC007B681B681A46174B9A420AD87B685B6C40
:1044EC009B089B0003F1804303F502337A689364C5
:1044FC0007E07B685B6C9B089A000F4B13447A684F
:10450C0093647B681B68DBB2083B0C4AA2FB032359
:10451C001B09FB607B680A4ADA64FB6803F01F0323
:10452C0001229A407B681A6500BF1437BD465DF8BE
:10453C00047B7047070402401C080240CDCCCCCC55
:10454C008008024080B485B000AF78607B685B68FF
:10455C0003F03F03FB60FA680B4B13449B001A46B5
:10456C007B685A657B68094A9A65FB68013B03F0D6
:10457C00030301229A407B68DA6500BF1437BD46FD
:10458C005DF8047B704700BF3F8200104009024079
:10459C0080B487B000AF7860396000237B614CE158
:1045AC003B681A6801217B6901FA03F31340FB6035
:1045BC00FB68002B00F03E813B685B6803F0030353
:1045CC00012B05D03B685B6803F00303022B30D151
:1045DC007B689B683B617B695B00032202FA03F3F7
:1045EC00DB433A6913403B613B68DA687B695B00EB
:1045FC0002FA03F33A6913433B617B683A699A60A8
:10460C007B685B683B6101227B6902FA03F3DB4345
:10461C003A6913403B613B685B681B0903F001027C
:10462C007B6902FA03F33A6913433B617B683A698D
:10463C005A603B685B6803F00303032B17D07B685D
:10464C00DB683B617B695B00032202FA03F3DB430B
:10465C003A6913403B613B689A687B695B0002FADC
:10466C0003F33A6913433B617B683A69DA603B6850
:10467C005B6803F00303022B23D17B69DA087B68A8
:10468C00083253F822303B617B6903F007039B002F
:10469C000F2202FA03F3DB433A6913403B613B6898
:1046AC001A697B6903F007039B0002FA03F33A696A
:1046BC0013433B617B69DA087B680832396943F83C
:1046CC0022107B681B683B617B695B00032202FA4A
:1046DC0003F3DB433A6913403B613B685B6803F0CF
:1046EC0003027B695B0002FA03F33A6913433B61F3
:1046FC007B683A691A603B685B6803F44033002BB3
:10470C0000F09880544A7B699B08023352F823309E
:10471C003B617B6903F003039B000F2202FA03F356
:10472C00DB433A6913403B617B68B3F1904F19D07E
:10473C007B684A4A934213D07B68494A93420DD016
:10474C007B68484A934207D07B68474A934201D121
:10475C00042308E0072306E0032304E0022302E01D
:10476C00012300E000237A6902F0030292009340D7
:10477C003A6913433B6138497B699B0802333A69B8
:10478C0041F82320394B1B683B61FB68DB433A69DA
:10479C0013403B613B685B6803F48013002B03D030
:1047AC003A69FB6813433B61304A3B6913602F4BFA
:1047BC005B683B61FB68DB433A6913403B613B68D8
:1047CC005B6803F40013002B03D03A69FB681343B6
:1047DC003B61264A3B695360244BD3F880303B61E4
:1047EC00FB68DB433A6913403B613B685B6803F44D
:1047FC008033002B03D03A69FB6813433B611B4A9F
:10480C003B69C2F88030194BD3F884303B61FB68AC
:10481C00DB433A6913403B613B685B6803F400334C
:10482C00002B03D03A69FB6813433B610F4A3B6989
:10483C00C2F884307B6901337B613B681A687B6901
:10484C0022FA03F3002B7FF4ABAE00BF00BF1C3782
:10485C00BD465DF8047B7047000001400004004831
:10486C0000080048000C00480010004800080058E0
:10487C0080B483B000AF78600B467B8013467B70AE
:10488C007B78002B03D07A887B689A6102E07A8867
:10489C007B689A6200BF0C37BD465DF8047B70479D
:1048AC0080B582B000AF0A4BDB687B60084B1A689E
:1048BC007B68DB43064913400B60054A7B685360F9
:1048CC00786800F007F800BF0837BD4680BD00BF10
:1048DC000015005880B483B000AF786000BF0C376F
:1048EC00BD465DF8047B704780B584B000AF78603E
:1048FC000023FB737B68002B1ED0134BBB607B68C3
:10490C0093F83830DBB2002B02D17868FDF738FC15
:10491C00B86800F05BF8BB681B6843F00112BB6819
:10492C001A60786800F02CF87B6800225A637B6868
:10493C00012283F8382001E00123FB73FB7B18462E
:10494C001037BD4680BD00BF000C005880B485B048
:10495C0000AFF860B9601346FB7100BF1437BD4659
:10496C005DF8047B704780B485B000AFF860B96027
:10497C001346FB7100BF1437BD465DF8047B7047CE
:10498C0080B485B000AF78600023FB600FE07A68DC
:10499C00FB689B0013440B4A5A607A68FB68063329
:1049AC009B001344084A5A60FB680133FB60FB68A8
:1049BC00052BECD900BF00BF1437BD465DF8047B56
:1049CC00704700BF594900087349000880B483B090
:1049DC0000AF78607B6800221A607B684FF03F1252
:1049EC005A607B683F229A6000BF0C37BD465DF869
:1049FC00047B704780B400AF054B1B68044A43F43A
:104A0C008073136000BFBD465DF8047B704700BF28
:104A1C000004005880B400AF044B1B6803F4C0635F
:104A2C001846BD465DF8047B704700BF0004005873
:104A3C0080B400AF4FF0B0431B6803F48013B3F5A0
:104A4C00801F01D1012300E000231846BD465DF80C
:104A5C00047B704780B400AF4FF0B0431B684FF03D
:104A6C00B04243F48033136000BFBD465DF8047B55
:104A7C00704780B400AF4FF0B0431B684FF0B042AA
:104A8C0023F48033136000BFBD465DF8047B704790
:104A9C0080B400AF4FF0B0431B6803F40033B3F5A0
:104AAC00003F01D1012300E000231846BD465DF80C
:104ABC00047B704780B400AF4FF0B0431B684FF0DD
:104ACC00B04243F48073136000BFBD465DF8047BB5
:104ADC00704780B400AF4FF0B0431B684FF0B0424A
:104AEC0023F48073136000BFBD465DF8047B7047F0
:104AFC0080B400AF4FF0B0431B6803F48063B3F590
:104B0C00806F01D1012300E000231846BD465DF8FB
:104B1C00047B704780B483B000AF78604FF0B04333
:104B2C005B6823F0FE427B681B064FF0B0411343D9
:104B3C004B6000BF0C37BD465DF8047B704780B4FA
:104B4C0000AF4FF0B043D3F898304FF0B04243F081
:104B5C000103C2F8983000BFBD465DF8047B704776
:104B6C0080B400AF4FF0B043D3F898304FF0B04260
:104B7C0023F00103C2F8983000BFBD465DF8047BFA
:104B8C00704780B400AF4FF0B043D3F8983003F0C7
:104B9C000203022B01D1012300E000231846BD467D
:104BAC005DF8047B704780B400AF4FF0B043D3F88E
:104BBC0090304FF0B04243F00103C2F8903000BF88
:104BCC00BD465DF8047B704780B400AF4FF0B04336
:104BDC00D3F890304FF0B04223F00103C2F890307C
:104BEC0000BFBD465DF8047B704780B400AF4FF04A
:104BFC00B043D3F890304FF0B04243F00403C2F806
:104C0C00903000BFBD465DF8047B704780B400AFA8
:104C1C004FF0B043D3F890304FF0B04223F0040380
:104C2C00C2F8903000BFBD465DF8047B704780B47D
:104C3C0000AF4FF0B043D3F8903003F00203022BD7
:104C4C0001D1012300E000231846BD465DF8047B2A
:104C5C00704780B400AF4FF0B043D3F894304FF0AE
:104C6C00B04243F00103C2F8943000BFBD465DF87A
:104C7C00047B704780B400AF4FF0B043D3F894304E
:104C8C004FF0B04223F00103C2F8943000BFBD4690
:104C9C005DF8047B704780B400AF4FF0B043D3F89D
:104CAC00943003F00203022B01D1012300E0002316
:104CBC001846BD465DF8047B704780B400AF4FF0DA
:104CCC00B043D3F894304FF0B04243F00403C2F831
:104CDC00943000BFBD465DF8047B704780B400AFD4
:104CEC004FF0B043D3F894304FF0B04223F00403AC
:104CFC00C2F8943000BFBD465DF8047B704780B4A9
:104D0C0000AF4FF0B043D3F8943003F00803082BF6
:104D1C0001D1012300E000231846BD465DF8047B59
:104D2C00704780B483B000AF78604FF0B043D3F8D5
:104D3C00943023F470627B681B024FF0B041134334
:104D4C00C1F8943000BF0C37BD465DF8047B70474A
:104D5C0080B400AF4FF0B0431B684FF0B04243F04B
:104D6C000103136000BFBD465DF8047B704780B43F
:104D7C0000AF4FF0B0431B684FF0B04223F001037B
:104D8C00136000BFBD465DF8047B704780B400AF74
:104D9C004FF0B0431B6803F00203022B01D1012337
:104DAC0000E000231846BD465DF8047B704780B4D4
:104DBC0083B000AF78604FF0B0431B6823F0F00273
:104DCC004FF0B0417B6813430B6000BF0C37BD46FE
:104DDC005DF8047B704780B483B000AF4FF0B043F4
:104DEC001B6803F0F0037B607B68B02B01D9B02308
:104DFC007B607B6818460C37BD465DF8047B7047BA
:104E0C0080B483B000AF78604FF0B0435B6823F49C
:104E1C007F427B681B024FF0B04113434B6000BFD5
:104E2C000C37BD465DF8047B704780B483B000AF8F
:104E3C0078604FF0B0439B6823F003024FF0B04111
:104E4C007B6813438B6000BF0C37BD465DF8047B59
:104E5C00704780B400AF4FF0B0439B6803F00C0375
:104E6C001846BD465DF8047B704780B483B000AF34
:104E7C0078604FF0B0439B6823F0F0024FF0B041E4
:104E8C007B6813438B6000BF0C37BD465DF8047B19
:104E9C00704780B483B000AF78604FF0B043D3F864
:104EAC00083123F0F0024FF0B0417B681343C1F896
:104EBC00083100BF0C37BD465DF8047B704780B4E9
:104ECC0083B000AF78604FF0B043D3F8083123F0D3
:104EDC000F027B681B094FF0B0411343C1F8083136
:104EEC0000BF0C37BD465DF8047B704780B483B0BF
:104EFC0000AF78604FF0B0439B6823F4E0624FF052
:104F0C00B0417B6813438B6000BF0C37BD465DF826
:104F1C00047B704780B483B000AF78604FF0B0432F
:104F2C009B6823F460524FF0B0417B6813438B6055
:104F3C0000BF0C37BD465DF8047B704780B400AFF2
:104F4C004FF0B0439B6803F0F0031846BD465DF884
:104F5C00047B704780B400AF4FF0B043D3F80831F6
:104F6C001B0103F0F0031846BD465DF8047B704747
:104F7C0080B400AF4FF0B0431B684FF0B04243F029
:104F8C008073136000BFBD465DF8047B704780B42E
:104F9C0000AF4FF0B0431B684FF0B04223F080736A
:104FAC00136000BFBD465DF8047B704780B400AF52
:104FBC004FF0B0431B6803F00073B3F1007F01D1D5
:104FCC00012300E000231846BD465DF8047B7047C2
:104FDC0080B400AF4FF0B043DB681B0A03F07F03D3
:104FEC001846BD465DF8047B704780B400AF4FF0A7
:104FFC00B043DB6803F060431846BD465DF8047BA4
:10500C00704780B400AF4FF0B043DB6803F070031F
:10501C001846BD465DF8047B704780B400AF4FF076
:10502C00B043DB6803F003031846BD465DF8047B10
:10503C00704780B400AF4FF0B0439B6803F48033EB
:10504C00B3F5803F01D1012300E000231846BD4693
:10505C005DF8047B704780B400AF4FF0B043D3F8D9
:10506C00083103F40033B3F5003F01D1012300E014
:10507C0000231846BD465DF8047B704780B400AF32
:10508C004FF0B043D3F8083103F48033B3F5803FCD
:10509C0001D1012300E000231846BD465DF8047BD6
:1050AC00704780B400AF4FF0B0439B6803F40033FB
:1050BC00B3F5003F01D1012300E000231846BD46A3
:1050CC005DF8047B704780B400AF4FF0B0439B6831
:1050DC0003F48023B3F5802F01D1012300E00023DA
:1050EC001846BD465DF8047B7047000090B58DB046
:1050FC0000AF78607B68002B01D1012363E37B68F0
:10510C001B6803F02003002B00F08D80FFF7A1FE3D
:10511C00F862FFF782FFB862FB6A002B05D0FB6ACE
:10512C000C2B47D1BB6A012B44D17B68DB69002B6C
:10513C0001D1012347E37B685C6AFFF74CFE034611
:10514C009C4214D97B685B6A184600F003FD034649
:10515C00002B01D0012336E37B685B6A1846FFF70E
:10516C0026FE7B681B6A1846FFF74AFE13E07B6835
:10517C005B6A1846FFF71BFE7B681B6A1846FFF735
:10518C003FFE7B685B6A184600F0E4FC0346002B8C
:10519C0001D0012317E300F0C9FC0346A44A1360B5
:1051AC00A44B1B681846FDF79DF90346002B39D01C
:1051BC00012308E37B68DB69002B1ED0FFF7C8FDD9
:1051CC00FDF7DEF9786208E0FDF7DAF902467B6A52
:1051DC00D31A022B01D90323F5E2FFF7D7FD0346BF
:1051EC00002BF1D07B685B6A1846FFF7E0FD7B680B
:1051FC001B6A1846FFF704FE15E0FFF7B8FDFDF734
:10520C00BFF9786208E0FDF7BBF902467B6AD31A56
:10521C00022B01D90323D6E2FFF7B8FD0346002B7E
:10522C00F1D100E000BF7B681B6803F00103002B89
:10523C0047D0FFF70EFE3862FFF7EFFEF8613B6ACE
:10524C00082B05D03B6A0C2B08D1FB69032B05D12D
:10525C007B685B68002B34D10123B4E27B685B680C
:10526C00B3F5803F02D1FFF7F5FB01E0FFF701FC3E
:10527C007B685B68002B12D0FDF782F9786208E03E
:10528C00FDF77EF902467B6AD31A642B01D90323FE
:10529C0099E2FFF7FDFB0346002BF1D011E0FDF77F
:1052AC006FF9786208E0FDF76BF902467B6AD31A56
:1052BC00642B01D9032386E2FFF7EAFB0346002B9C
:1052CC00F1D17B681B6803F00203002B4CD0FFF775
:1052DC00C0FDB861FFF7A1FE7861BB69042B05D056
:1052EC00BB690C2B0ED17B69022B0BD17B68DB6865
:1052FC00002B01D1012366E27B681B691846FFF77E
:10530C0009FC31E07B68DB68002B19D0FFF7D2FB7E
:10531C00FDF736F9786208E0FDF732F902467B6A50
:10532C00D31A022B01D903234DE2FFF7E1FB03460D
:10533C00002BF1D07B681B691846FFF7EBFB13E0E1
:10534C00FFF7C7FBFDF71CF9786208E0FDF718F9C9
:10535C0002467B6AD31A022B01D9032333E2FFF7EF
:10536C00C7FB0346002BF1D17B681B6803F00803D5
:10537C00002B06D17B681B6803F01003002B00F098
:10538C00A3807B685B69002B76D07B681B6803F07D
:10539C001003002B46D0FFF77EFC0346002B13D1E5
:1053AC00FFF757FCFDF7ECF8786208E0FDF7E8F83A
:1053BC0002467B6AD31A022B01D9032303E2FFF7BF
:1053CC006AFC0346002BF1D0FFF777FCFDF7D8F809
:1053DC00786208E0FDF7D4F802467B6AD31A032BF7
:1053EC0001D90323EFE1FFF78AFC0346002BF1D030
:1053FC007B689B691846FFF794FCFFF73BFCFDF7B5
:10540C00BFF8786208E0FDF7BBF802467B6AD31A56
:10541C00022B01D90323D6E1FFF73DFC0346002BF9
:10542C00F1D151E0FFF715FCFDF7AAF878620CE01A
:10543C00080000200C000020FDF7A2F802467B6A51
:10544C00D31A022B01D90323BDE1FFF724FC034639
:10545C00002BF1D0FFF742FC08E0FDF791F8024673
:10546C007B6AD31A032B01D90323ACE1FFF747FC6A
:10547C000346002BF1D127E0FFF730FCFDF780F855
:10548C00786208E0FDF77CF802467B6AD31A032B9E
:10549C0001D9032397E1FFF732FC0346002BF1D12E
:1054AC00FFF7E8FBFDF76CF8786208E0FDF768F8A9
:1054BC0002467B6AD31A022B01D9032383E1FFF73F
:1054CC00EAFB0346002BF1D17B681B6803F0040355
:1054DC00002B5BD0A74B1B6803F48073002B14D1FB
:1054EC00FFF788FAFDF74CF8786208E0FDF748F80A
:1054FC0002467B6AD31A022B01D9032363E19D4B2D
:10550C001B6803F48073002BF0D07B689B68012B25
:10551C0002D1FFF748FB0CE07B689B68052B04D19C
:10552C00FFF763FBFFF73FFB03E0FFF74DFBFFF7D4
:10553C006DFB7B689B68002B14D0FDF721F878621B
:10554C000AE0FDF71DF802467B6AD31A41F2883255
:10555C00934201D9032336E1FFF769FB0346002B85
:10556C00EFD013E0FDF70CF878620AE0FDF708F8CD
:10557C0002467B6AD31A41F28832934201D9032343
:10558C0021E1FFF754FB0346002BEFD17B681B682E
:10559C0003F04003002B2CD07B689B6A002B14D0AB
:1055AC00FFF7CDFAFCF7ECFF786208E0FCF7E8FFB8
:1055BC0002467B6AD31A022B01D9032303E1FFF7BE
:1055CC00E0FA0346002BF1D013E0FFF7C9FAFCF721
:1055DC00D7FF786208E0FCF7D3FF02467B6AD31A48
:1055EC00022B01D90323EEE0FFF7CBFA0346002B85
:1055FC00F1D17B68DB6A002B00F0E480FFF729FC1B
:10560C0038614FF0B043DB68FB607B68DB6A022BD0
:10561C0040F0B480FB6803F003027B681B6B9A427A
:10562C0023D1FB6803F070027B685B6B9A421CD140
:10563C00FB681B0A03F07F027B689B6B9A4214D1B8
:10564C00FB6803F478127B68DB6B9A420DD1FB6824
:10565C0003F060627B681B6C9A4206D1FB6803F016
:10566C0060427B685B6C9A425DD03B690C2B58D0D6
:10567C004FF0B0431B6803F08063002B01D0012373
:10568C00A1E0FFF784FCFCF77BFF786208E0FCF7F5
:10569C0077FF02467B6AD31A022B01D9032392E0CF
:1056AC004FF0B0431B6803F00073002BEFD14FF0A9
:1056BC00B043DA68304B13407A68116B7A68526BDE
:1056CC0011437A68926B120211437A68D26B1143C0
:1056DC007A68126C11437A68526C0A434FF0B041ED
:1056EC001343CB60FFF744FC4FF0B043DB684FF043
:1056FC00B04243F08053D360FCF742FF786208E07D
:10570C00FCF73EFF02467B6AD31A022B01D9032316
:10571C0059E04FF0B0431B6803F00073002BEFD03F
:10572C0050E001234FE04FF0B0431B6803F00073CF
:10573C00002B47D1FFF71CFC4FF0B043DB684FF058
:10574C00B04243F08053D360FCF71AFF786208E054
:10575C00FCF716FF02467B6AD31A022B01D90323EE
:10576C0031E04FF0B0431B6803F00073002BEFD017
:10577C0028E000BF000400588C80C1113B690C2B41
:10578C001ED0FFF704FCFCF7FBFE786208E0FCF788
:10579C00F7FE02467B6AD31A022B01D9032312E0CF
:1057AC004FF0B0431B6803F00073002BEFD14FF0A8
:1057BC00B043DA684FF0B041054B1340CB6001E0C9
:1057CC00012300E0002318463437BD4690BD00BFCE
:1057DC00FCFFFEEE80B584B000AF786039607B686A
:1057EC00002B01D101232DE1984B1B6803F007031B
:1057FC003A689A421BD9954B1B6823F007029349D0
:10580C003B6813430B60FCF7BBFEF86008E0FCF749
:10581C00B7FE0246FB68D31A022B01D9032311E110
:10582C008A4B1B6803F007033A689A42EFD17B68F6
:10583C001B6803F00203002B16D07B689B6818468C
:10584C00FFF713FBFCF79CFEF86008E0FCF798FEF2
:10585C000246FB68D31A022B01D90323F2E0FFF7AF
:10586C00E8FB0346002BF1D07B681B6803F0200398
:10587C00002B16D07B685B691846FFF70AFBFCF718
:10588C007FFEF86008E0FCF77BFE0246FB68D31A4B
:10589C00022B01D90323D5E0FFF7DDFB0346002BD8
:1058AC00F1D07B681B6803F04003002B16D07B689B
:1058BC009B691846FFF703FBFCF762FEF86008E0F3
:1058CC00FCF75EFE0246FB68D31A022B01D90323B8
:1058DC00B8E0FFF7D3FB0346002BF1D07B681B68C5
:1058EC0003F00403002B16D07B68DB681846FFF727
:1058FC00FDFAFCF745FEF86008E0FCF741FE0246B5
:10590C00FB68D31A022B01D903239BE0FFF7C9FBD9
:10591C000346002BF1D07B681B6803F00803002BB7
:10592C0017D07B681B69DB001846FFF7F3FAFCF70E
:10593C0027FEF86008E0FCF723FE0246FB68D31A4A
:10594C00022B01D903237DE0FFF7BDFB0346002B9F
:10595C00F1D07B681B6803F00103002B43D07B68FC
:10596C005B68022B06D1FFF793F80346002B1ED180
:10597C00012367E07B685B68032B06D1FFF716FBFE
:10598C000346002B13D101235CE07B685B68002B82
:10599C0006D1FFF7FBF90346002B08D1012351E098
:1059AC00FFF7A6F80346002B01D101234AE07B68E0
:1059BC005B681846FFF739FAFCF7E2FDF8600AE07D
:1059CC00FCF7DEFD0246FB68D31A41F288329342A3
:1059DC0001D9032336E0FFF73CFA02467B685B688B
:1059EC009B009A42ECD1194B1B6803F007033A68F1
:1059FC009A421BD2154B1B6823F0070213493B68D4
:105A0C0013430B60FCF7BCFDF86008E0FCF7B8FD35
:105A1C000246FB68D31A022B01D9032312E00B4B6D
:105A2C001B6803F007033A689A42EFD100F07EF846
:105A3C000346074A1360FCF7AFFD03461846FCF714
:105A4C0051FD034618461037BD4680BD0040005836
:105A5C000800002090B585B000AFFFF7FAF9786028
:105A6C007B68002B0AD1FFF7B6F903461B0903F03C
:105A7C000F032B4A52F82330FB604BE07B68042B5E
:105A8C0002D1284BFB6045E07B68082B0AD1FEF75E
:105A9C00CFFF0346012B02D1224BFB603AE0224B95
:105AAC00FB6037E0FFF7B9FA38603B68022B03D094
:105ABC003B68032B03D00DE01A4BBB6015E0FEF7DF
:105ACC00B7FF0346012B02D1164BBB600DE0164B02
